{
  "transactions": [
    {
      "hash": "0xc2365b94554f6461e51d83b3791652a66077b24f08f9ad8dbd7eeb3ea75adc44",
      "transactionType": "CALL",
      "contractName": null,
      "contractAddress": "0x19386214ee713b4a1609df4035085ddc829c4d1c",
      "function": "claim(address,uint256,bytes32[],uint8,bytes32,bytes32)",
      "arguments": [
        "0xf39Fd6e51aad88F6F4ce6aB8827279cffFb92266",
        "25000000000000000000",
        "[0xa24ade2ae6f52f82ecae64070c08ae4a8e1fca2aeb44f468081ed6129559e7a8, 0xe5ebd1e1b5a5478a944ecab36a9a954ac3b6b8216875f6524caa7a1d87096576]",
        "27",
        "0xcbd08ea4910eeb88f0fc9926bcccdc9400f17caffb6ce694e64ba7208af7fb35",
        "0x067e203a1e306fb860f43f36ac82c883362f86c5aff3a0c6aa1207baaec28d08"
      ],
      "transaction": {
        "from": "0x2040ca5ad0cd6922fa032b3cd1fc3a78e2d9fd7d",
        "to": "0x19386214ee713b4a1609df4035085ddc829c4d1c",
        "gas": "0x1e1d1",
        "value": "0x0",
        "input": "0x4497a169000000000000000000000000f39fd6e51aad88f6f4ce6ab8827279cfffb922660000000000000000000000000000000000000000000000015af1d78b58c4000000000000000000000000000000000000000000000000000000000000000000c0000000000000000000000000000000000000000000000000000000000000001bcbd08ea4910eeb88f0fc9926bcccdc9400f17caffb6ce694e64ba7208af7fb35067e203a1e306fb860f43f36ac82c883362f86c5aff3a0c6aa1207baaec28d080000000000000000000000000000000000000000000000000000000000000002a24ade2ae6f52f82ecae64070c08ae4a8e1fca2aeb44f468081ed6129559e7a8e5ebd1e1b5a5478a944ecab36a9a954ac3b6b8216875f6524caa7a1d87096576",
        "nonce": "0x9",
        "chainId": "0xaa36a7"
      },
      "additionalContracts": [],
      "isFixedGasLimit": false
    }
  ],
  "receipts": [
    {
      "status": "0x1",
      "cumulativeGasUsed": "0x916f51",
      "logs": [
        {
          "address": "0x19386214ee713b4a1609df4035085ddc829c4d1c",
          "topics": [
            "0x47cee97cb7acd717b3c0aa1435d004cd5b3c8c57d70dbceb4e4458bbd60e39d4",
            "0x000000000000000000000000f39fd6e51aad88f6f4ce6ab8827279cfffb92266"
          ],
          "data": "0x0000000000000000000000000000000000000000000000015af1d78b58c40000",
          "blockHash": "0x6e3d649a7c56a09cb5b3ce69da20d19d2ff3d75144c1baaaf929201bba13e4a7",
          "blockNumber": "0x6daf42",
          "transactionHash": "0xc2365b94554f6461e51d83b3791652a66077b24f08f9ad8dbd7eeb3ea75adc44",
          "transactionIndex": "0xb9",
          "logIndex": "0x58",
          "removed": false
        },
        {
          "address": "0xdbc719be1092f089652fdfca4e362ee602326329",
          "topics": [
            "0xddf252ad1be2c89b69c2b068fc378daa952ba7f163c4a11628f55a4df523b3ef",
            "0x00000000000000000000000019386214ee713b4a1609df4035085ddc829c4d1c",
            "0x000000000000000000000000f39fd6e51aad88f6f4ce6ab8827279cfffb92266"
          ],
          "data": "0x0000000000000000000000000000000000000000000000015af1d78b58c40000",
          "blockHash": "0x6e3d649a7c56a09cb5b3ce69da20d19d2ff3d75144c1baaaf929201bba13e4a7",
          "blockNumber": "0x6daf42",
          "transactionHash": "0xc2365b94554f6461e51d83b3791652a66077b24f08f9ad8dbd7eeb3ea75adc44",
          "transactionIndex": "0xb9",
          "logIndex": "0x59",
          "removed": false
        }
      ],
      "logsBloom": "0x00000000000000000800000000000000000000000000000000000000000000000800000000000000000000000000000000000010000000000100000000000000000000000000000000000008000000000000000000000000000000000000000200000000000000000000000100000000000000000000000000020010000000000000000000000000000000000000000000000000000000000000000000000000000000000000000200000000000000000000000800020000000000000000000000000002000000200000000400000000000000002000000000000000000000000040000000000000000000000000800000000000000000000000000000000000",
      "type": "0x2",
      "transactionHash": "0xc2365b94554f6461e51d83b3791652a66077b24f08f9ad8dbd7eeb3ea75adc44",
      "transactionIndex": "0xb9",
      "blockHash": "0x6e3d649a7c56a09cb5b3ce69da20d19d2ff3d75144c1baaaf929201bba13e4a7",
      "blockNumber": "0x6daf42",
      "gasUsed": "0x15cd4",
      "effectiveGasPrice": "0x14a56d9d0",
      "from": "0x2040ca5ad0cd6922fa032b3cd1fc3a78e2d9fd7d",
      "to": "0x19386214ee713b4a1609df4035085ddc829c4d1c",
      "contractAddress": null
    }
  ],
  "libraries": [],
  "pending": [],
  "returns": {},
  "timestamp": 1733037807,
  "chain": 11155111,
  "commit": "29239dc"
}